:1000000004308A006F2C00000A108A100A1182073F
:10001000313432343334343435343634373438349C
:1000200039342A34303423340C004326412B451014
:10003000C121D42A412600010C004326412B451042
:10004000CE2A452B411020000C00A021CC20D62226
:10005000A0244E2B41264922411000010C000C0027
:100060002022C923492A45104326412B451000016F
:100070000C00A021CC20D622A0214F29D222432A35
:10008000411000010C00A021CC20D622A0244E2B30
:1000900041264922411000004B30840083130008A0
:1000A000031960280130F800F701F70B5528F80B09
:1000B00054284A30F700F70B5B285E28800B522843
:1000C0000800520EF039F7000F300605770486005D
:1000D000000006146B28061008000608F700060E3C
:1000E0000F39F800080083160610861006118312D7
:1000F00086100F3083160605F03886008312061529
:100100000000061400006D207808D20006100000E0
:10011000061400006D207808D10006100F308316F9
:10012000060586008312520EF700F030F7057708B7
:100130005104F8007808D100D11B79284F1C861093
:100140004F1886140000061100000610500ED10052
:100150000F30D1055108D200612050080F39D1006D
:10016000D200612008002830BD000C30BE000130F4
:10017000BF000630C0000610861006110F3083162F
:10018000060586000610861006110F308312CB007C
:100190004C200130BC003C08033C031CD728033032
:1001A000D20061200530CB004C20BC0ACB280230A5
:1001B000D20061200530CB004C20BC013C08033C40
:1001C000031CEE283D303C07840083130008C10067
:1001D000CF014108D0007320BC0ADE288A110A1220
:1001E000962C8A110A12972C1030D700F701FA01C9
:1001F000D40CD30C031C02295508F7070318FA0A7C
:100200005608FA07FA0CF70CF90CF80CD70BF8287B
:100210000800F701F801510803105218F707F70C0E
:10022000F80CD218F707F70CF80C5219F707F70C6F
:10023000F80CD219F707F70CF80C521AF707F70C5D
:10024000F80CD21AF707F70CF80C521BF707F70C4B
:10025000F80CD21BF707F70CF80C08004C0B3129EF
:1002600034294030CD003529CD0101304B02CD0776
:100270004D088038CE00CF014E08D0007320080012
:100280004A08073A03194E290B3A03195329063A2B
:1002900003195B29023A0319612966290130CB0051
:1002A000CC002E216B29CF010130D0007320023009
:1002B000CB004C206B290130CB000230CC002E212A
:1002C0006B29CF011030D00073206B290130CF0093
:1002D0004A08D000732008000B08C7008B13831650
:1002E00003178C170C140000000083120313C71BA4
:1002F0008B1703170C087F390319C0290313C70094
:1003000003170D080313C80003170F080313C900D0
:100310004708CA004021480803178D000313490805
:1003200003178F0003130B08CA008B1383160317E0
:100330008C170C140000000083120313CA1B8B17C8
:1003400003170C0D0E0D7F390319C0290313C700C5
:1003500003170D080313C80003170F080313C90080
:100360004708CA004021480803178D0003134908B5
:1003700003178F008D0A03198F0A03136C290317C3
:1003800003130800C701A00A2008213C0318202AF3
:1003900023080319D229013A0319D829033A03196A
:1003A000DE29E329DE308316860083128600E329E6
:1003B000BE308316860083128600E3297E308316C2
:1003C000860083128600211CEF2906081E391E3C78
:1003D000031DEE2921102208C700A2011F2A0608CA
:1003E0001E391E3C03191A2A06080239031DFA2970
:1003F000C8010E2A06080439031D012A0130C8006D
:100400000E2A06080839031D082A0230C8000E2AE1
:1004100006081039031D0E2A0330C8004808D10011
:100420000330D2000921230878070420F800A20035
:1004300021141F2AA30A2308033C0319A301A001C6
:10044000FE308316860083124708F8000800C22198
:100450007808A400A408031D312AC2217808A4004A
:100460002A2AA40803196E2A2408303C0319A9017A
:100470002408313C031D3E2A0130A9002408323CE7
:10048000031D442A0230A9002408333C031D4A2AD4
:100490000330A9002408343C031D502A0430A9006D
:1004A0002408353C031D562A0530A9002408363C93
:1004B000031D5C2A0630A9002408373C031D622A6C
:1004C0000730A9002408383C031D682A0830A90019
:1004D0002408393C031D6E2A0930A9000800272290
:1004E0002408233C03197D2A24082A3C03197D2A69
:1004F0002A30CA0040212908A50024082A3C0319F3
:10050000842A2408233C0319C72A27222408233CD1
:100510000319932A24082A3C0319932A2A30CA0073
:1005200040212908A60024082A3C03199A2A2408F5
:10053000233C0319C72A27222408233C0319A92A8C
:1005400024082A3C0319A92A2A30CA004021290874
:10055000A70024082A3C0319B02A2408233C0319C5
:10056000C72A27222408233C0319BF2A24082A3C2F
:100570000319BF2A2A30CA0040212908A8002408EC
:100580002A3C0319C62A2408233C0319C72A080059
:10059000C801C701D4012508D3000330D600E830D4
:1005A000D500F4207908CA007808C900D2012608CD
:1005B000D1005208D4002608D300D6016430D500FB
:1005C000F4207908CC007808CB002708D1000A3045
:1005D000D2000921CE017808CD00D0012808CF0033
:1005E0004B084907D1004A08D2004C0803184C0FA9
:1005F000D2074D08D1074E0803184E0FD2074F08F7
:100600005107C7005208C80050080318500FC80708
:10061000A501A601A701A8012A084702031D182B5E
:100620002B084802031D182B0130F8001A2B1A2B37
:100630000030F8000800BC01BE01BD0114300317F2
:100640008D0000308F0003136C210130CB00CC00F3
:100650002E21153003178D0000308F0003136C21FD
:100660000130CB000230CC002E216F22C822F808C6
:1006700003194B2C1C3003178D0000308F0003131F
:100680006C210130CB00CC002E211D3003178D00D2
:1006900000308F0003136C210130CB000230CC00FE
:1006A0002E2127222408233C03195F2B24082A3CEF
:1006B00003195F2B2A30CA0040212908A5002722F0
:1006C0002408233C03196D2B24082A3C03196D2BA5
:1006D0002A30CA0040212908A60027222408233CEA
:1006E00003197B2B24082A3C03197B2B2A30CA00D0
:1006F00040212908A70027222408233C0319892B1D
:1007000024082A3C0319892B2A30CA0040212908D1
:10071000A800D4012508D3000330D600E830D50066
:10072000F4207908C0007808BF002608D1000A30FC
:10073000D2000921C2017808C1004208D400410852
:10074000D300D6010A30D500F4207908C200780819
:10075000C1002708D1000A30D2000921C40178085D
:10076000C300C6012808C50041083F07C70040086C
:10077000C80042080318420FC8074308C7074408C7
:100780000318440FC80745084707BD004808BE00C6
:1007900046080318460FBE073E08AB003D08AA00F6
:1007A0000B08F7008B1303178D010313250803179C
:1007B0008C0083168C130C1555308D00AA308D00DB
:1007C0008C148C18E12B0C117708831203138B0403
:1007D0000B08F7008B13013003178D000313260855
:1007E00003178C0083168C130C1555308D00AA301E
:1007F0008D008C148C18FA2B0C11770883120313BC
:100800008B040B08F7008B13023003178D000313C2
:10081000270803178C0083168C130C1555308D0098
:10082000AA308D008C148C18132C0C1177088312AD
:1008300003138B040B08F7008B13033003178D0091
:100840000313280803178C0083168C130C155530DE
:100850008D00AA308D008C148C182C2C0C1177086C
:10086000831203138B040B08F7008B130430031758
:100870008D000C308C0083168C130C1555308D00B8
:10088000AA308D008C148C18432C0C11770883121D
:1008900003138B046E2C243003178D0000308F005F
:1008A00003136C210130CB000230CC002E21253007
:1008B00003178D0000308F0003136C218717103051
:1008C000C700FA30CB004C20C70B612C87132E30A9
:1008D00003178D0000308F0003136C2108000308FC
:1008E0001F3983002730AB000F30AA00AE01AD01E5
:1008F000FF30AF00831603170908C03989000313BE
:100900001F129F120030031788008312870188018D
:10091000890183130313A0012110A201A301003058
:10092000831687008312AF008701B328F128FF30B8
:100930008316950081130430831203178D008316EC
:100940008C130C1483120C080313AC002C080C3C01
:100950000319AF2C2730AB000F30AA00142D03175A
:100960008D0183168C130C1483120C080313B8002A
:10097000013003178D0083168C130C1483120C089E
:100980000313B900023003178D0083168C130C1467
:1009900083120C080313BA00033003178D0083166B
:1009A0008C130C1483120C080313BB00D4013808F9
:1009B000D3000330D600E830D500F4207908B10028
:1009C0007808B000BD013908BC003D08D4003908E2
:1009D000D300D6016430D500F4207908B30078083C
:1009E000B2003A08D1000A30D2000921B5017808D6
:1009F000B400B7013B08B60032083007BC0031082C
:100A0000BD0033080318330FBD073408BC07350891
:100A10000318350FBD0736083C07AA003D08AB0098
:100A200037080318370FAB072F3003178D0000303E
:100A30008F0003136C210130CB00CC002E2130300D
:100A400003178D0000308F0003136C210130CB00A1
:100A50000230CC002E210430BC00FA30CB004C20F8
:100A6000BC0B2D2D6F2224082A3C031D392D1B237E
:100A70007F2D2408233C0319432D272224082A3CD8
:100A800003191B23392DC822F8080319632D3830A8
:100A900003178D0000308F0003136C210130CB0051
:100AA000CC002E21393003178D0000308F00031346
:100AB0006C2107160830BC00FA30CB004C20BC0B70
:100AC0005C2D07127F2D423003178D0000308F0000
:100AD00003136C210130CB000230CC002E214330B7
:100AE00003178D0000308F0003136C21871710301F
:100AF000BC00FA30CB004C20BC0B792D8713142D91
:020B0000630090
:04400E00F12CFF3F53
:00000001FF
;PIC16F887
;CRC=B139  CREATED="14-mar.-21 18:45"
